:020000040000FA
:06000000C7EF0DF0120035
:0A0006000100F21B00008000000062
:0400100019000000D3
:0C00140046EC05F0FB0EDBCFF3FFDB0633
:10002000F35000090AE094EC05F0FA0EFFEC05F03D
:10003000F3E1151CF1E1010E01D0000E75EF05F0A2
:1000400046EC05F03B0EE12402E3E168E652E16E86
:10005000010EDB6A020EDB6AF90EDBCFF6FFFA0E49
:10006000DBCFF7FFFB0EDBCFF8FF0800F550DF6EAC
:10007000DF5002E199EF04F0250EDF5C02E08CEF27
:1000800004F0030EDB6A040EDB6A050EDB6A060E63
:10009000DB6A070EDB6AAEEC04F02D0EDF5C0CE0D1
:1000A0002B0EDF5C09E0200EDF5C06E0230EDF5C38
:1000B00003E0300EDF5C1AE1DF50300A14E0130A6F
:1000C0000FE0030A0AE00B0A05E0060AE4E1030E6A
:1000D000DB80E1D7030EDB82DED7030EDB84DBD7C8
:1000E000030EDB86D8D7030EDB88D5D72A0EDF5C5C
:1000F0001BE1AAEC04F0F8EC04F010E0030EDB8046
:1001000006680768130EDBCF0BF0140EDBCF0CF084
:1001100013EC0AF0040E04C0DBFF03D0130EE1EC75
:1001200004F0AEEC04F00BD0090EDB6A4FEC05F0E6
:1001300003E0C3EC05F0FAD7090EE1EC04F0030E7E
:10014000DBB0DB982E0EDF5C1BE1AEEC04F02A0E78
:10015000DF5C0BE1AAEC04F0F8EC04F003E1130E11
:1001600033EC05F0AEEC04F00BD0090EDB6A4FEC7B
:1001700005F003E0C3EC05F0FAD7090E33EC05F007
:10018000680EDF5C07E1AEEC04F0680EDF5C1DE199
:10019000030E18D0740EDF5C17E07A0EDF5C14E0FB
:1001A000480EDF5C06E0540EDF5C03E05A0EDF5CB5
:1001B00002E1020E07D06C0EDF5C03E06A0EDF5C2A
:1001C00004E1010E86EC05F0C9DBDF506E0A01E1A7
:1001D0007FD31E0A01E192D1200A01E18FD13F0AAB
:1001E00001E149D11A0A01E146D10D0A01E143D1E9
:1001F000200A01E140D13A0A01E13DD1200A01E1A2
:100200003AD1260A01E135D10D0A01E132D11A0AAB
:1002100001E1D9D0200A4AE0300A1FE0460A0EE088
:10022000250A01E083D3D950F90FE96EFF0EDA20D9
:10023000EA6E010EEE5E000EEE5AEE5A94EC05F0F8
:10024000250EE66E95DB03E1151C01E169D390EC08
:1002500005F001E26BD3DB2A69D3080EDB6A040EDA
:10026000DB50010806E2040EDB0458EC05F0DB501D
:100270008BDB080EDB5009E0030EDB50010B05E1C0
:1002800072DB01E04DD3080EDB6A64DBEFCFDFFFEA
:1002900008EC06F003E1151C01E142D390EC05F0F7
:1002A00001E3DB2A60DB01E141D33AD3070EDB50E7
:1002B00002080FE1D4EC05F0030E9BEC05F00E0EE6
:1002C000EECFDBFF0F0EEECFDBFF100EEECFDBFF2E
:1002D00020D0F70EDBCF17F0F80EDBCF18F0020EB0
:1002E000175E000E185AF70E17C0DBFFF80E18C085
:1002F000DBFF17C0E9FF18C0EAFF8BEC05F0166AB8
:100300000E0E14C0DBFF0F0E15C0DBFF100E16C063
:10031000DBFF0E0EDBCFE6FF0F0EDBCFE6FF100E8E
:10032000DBCFE6FFD4EC0BF0E552E552E552130EBD
:1003300005C0DBFF140E06C0DBFF060EDB5005E038
:10034000130ECFEC05F001E26ADBF3EC05F002E2FC
:10035000130E37DBB6EC05F006E0040ECFEC05F02B
:1003600002E2050E2EDB030EDBB005D0FCDA01E065
:10037000D7D2080EDB6A090EDB6A0E0EDBCFF6FF62
:100380000F0EDBCFF7FF100EDBCFF8FF0800F550A4
:10039000DF6EDF5014E0F9EC05F011E208EC06F036
:1003A00003E1151C01E1BCD2BBDB01E3DB2A090E32
:1003B000DB2AD9500E0FE96E000ECBDBE7D7D3DA7C
:1003C00001E1B4D2ADD2C6DA110EEECFDBFF120ED0
:1003D000EDCFDBFF110EDBCFE6FF120EDBCFE6FF2A
:1003E000C6EC0BF0E552E552130EF3CFDBFF140E13
:1003F000F4CFDBFF060EDB5004E0130ED0DB01E28E
:100400000EDBF3EC05F002E2130EDBDAAFDB05E006
:10041000040EC5DB02E2050ED4DA030EDBB005D014
:10042000A2DA01E07DD2080EDB6A090EDB6A110E4A
:10043000DBCFE9FF120EDBCFEAFFEFCFDFFFDF50AC
:1004400014E0D7DB12E2E4DB03E1151C01E168D222
:1004500067DB01E3DB2A090EDB2A110EDB2ADBCF87
:10046000E9FF120EE8E3DB2AE6D77DDA01E15ED28E
:1004700057D2030EDB8E070EDB0410E195DB040E72
:100480005ADB0A0EEECFDBFF0B0EEECFDBFF0C0EBE
:10049000EECFDBFF0D0EEECFDBFF6CD0070EDB5097
:1004A00003082CE1030EDBAE0DD0B2DA020E76DAD1
:1004B000EFCF14F0156A166A176A14AE39D01568B2
:1004C000166835D0F70EDBCF15F0F80EDBCF16F03F
:1004D000020E155E000E165AF70E15C0DBFFF80E61
:1004E00016C0DBFF15C0E9FF16C0EAFFEFCF14F01E
:1004F0000A0E14C0DBFF0B0EDB6A38D0070EDB5090
:10050000020809E1030EDBAE04D059DB16AE10D0B1
:100510000ED055DB0DD0030EDBAE12D079DA020E11
:100520003DDAF9DA166A176A15AE02D0166817684E
:10053000E2DA0C0E16C0DBFF0D0E17C0DBFF1AD07F
:10054000F70EDBCF16F0F80EDBCF17F0020E165EBB
:10055000000E175AF70E16C0DBFFF80E17C0DBFFB0
:1005600016C0E9FF17C0EAFFD6DAC5DA0C0EDB6A5F
:100570000D0EDB6A060EDB5005E1010EF36E050E73
:10058000F3CFDBFF150EDB6A160EDB6AD950370F8F
:10059000146E000EDA20156E390E14C0DBFF3A0E11
:1005A00015C0DBFF380EDB6A080EDB6A0A0EAEDA16
:1005B000DF50780A12E0200A10E0280A0CE0200A36
:1005C0000AE03F0A06E00D0A02E0200A08E1020EF6
:1005D00005D0080E03D0080EDF26100E97DA030EA2
:1005E000DBBE02D0DB92DB94DB50800B24E08ADAA6
:1005F000D890030EEB50000A08E6000EEE5C000EE9
:10060000EE58000EEE58000EEE5815E213DA0968A7
:100610000A680B680C688EEC0BF00A0E00C0DBFF5A
:100620000B0E01C0DBFF0C0E02C0DBFF0D0E03C082
:10063000DBFF2D0E08D0030EDBA202D02B0E03D061
:10064000DBA408D0200EF36E170EF3CFDBFF150EE0
:10065000DB2A02D0170EDB6A050EDB5003E1B7D9A7
:1006600001E189D0DC0E146E1B0E156E000E166EA5
:10067000070EDBCF17F0186A196A1A6A17C009F05B
:1006800018C00AF019C00BF01AC00CF0D3D9DFEC77
:100690000CF014500024F36E15500120F46E165027
:1006A0000220F86EF4CFF7FFF3CFF6FF0800090E33
:1006B000F5CFDBFF580EDF5C0FE1610EF36E090E24
:1006C0007BD90AE3200E146E090EDBCFE7FF14502E
:1006D000E75E090EE7CFDBFF070EDBCF14F0156AEC
:1006E000166A176A0FDA14C009F015C00AF016C0AE
:1006F0000BF017C00CF0EECF04F0EECF05F0EECF0C
:1007000006F0EFCF07F0DFEC0CF007C0EDFF06C0FE
:10071000EDFF05C0EDFF04C0EFFF390EDBCFE9FFB1
:10072000DB063A0EDBCFEAFF01E2DB06090EDBCF88
:10073000EFFF150EDB2A4BD995E1030EDBA61DD08A
:100740006F0EDF5C06E1C1D918E3150EDB285BDA1A
:1007500014D0780EDF5C09E0580EDF5C06E0620E14
:10076000DF5C03E0420EDF5C08E1020EF36E160E62
:10077000F3CFDBFF02D0150EDB6A030EDB50100B4C
:100780000EE0040EDBCF14F0050EDB50D8801454BD
:1007900006E2060EDB5003E1040EDB5034DA95D995
:1007A0000AE2050EDBCFE7FF150EDB50E75E050E14
:1007B000E7CFDBFF02D0050EDB6A040EDBCF14F0BF
:1007C000160E45D9D880145414E2160EDBCFE6FF7E
:1007D000150EDBCFE6FF040EDBCFE6FF050EDB5088
:1007E000E552E75CE552D880E754E552D880E754FB
:1007F0005FD9030EDB50010B0BE1080EDB5008E064
:10080000B2D801E08DD0080EDB50BED8080EDB6AEE
:10081000170EDB5007E088D9170EF1D903E1151C3C
:1008200001E17ED0160EDB5016E07ED9300EE66E6A
:100830009FD802E1151C74E077D9DFCFE6FF4CECBE
:100840000BF0E552E552E552F4CF15F00001F31C30
:1008500002E1151C65E0050EDBCF14F0160EDB502F
:10086000D880145409E2050EDBCFE7FF160EDB50EB
:10087000E75E050EE7CFDBFF300EE66E050ECBD947
:100880004FE1390EDB2ADBCFE9FF3A0E01E3DB2A29
:10089000DBCFEAFF090EEFCFDBFFDB500EE044D9E0
:1008A000090EADD902E1151C3BE0390EDB2ADBCF86
:1008B000E9FF3A0EEDE3DB2AEBD755D831E1160E0E
:1008C000DBCFE6FF080EC3D8E552E7245DD82ED073
:1008D000070EDB50030A1CE0010A14E0030A07E0DC
:1008E0007BD9DBCFEEFF020EDBCFEDFF1FD0F5D8BB
:1008F000196A17AE02D0186819682CD8BCD819C06C
:10090000EEFF14D0EAD817BE186824D8B4D80ED099
:1009100063D9DBCFEFFF0AD07BD905E1151C03E1DA
:10092000F368F46810D0FCD801E3DB2A79D935EFFD
:1009300000F0010EDBCF14F0020EDBCF15F014C077
:10094000F3FF15C0F4FF3B0EE15C02E2E16AE55201
:10095000E16ECBD029D9020E9BEF05F061D90800DA
:10096000F550DF6E1200200EE66E080E0BEF06F05B
:100970004CEC0BF0E552E552E552F3CF14F0F4CF16
:1009800015F00001F31C1200146E156AD950010F06
:100990004DD91450EE261550ED221200185E000EAF
:1009A000195AF70E18C0DBFFF80E19C0DBFF18C08C
:1009B000E9FF19C0EAFF1200DBCFF4FFF350F45C4B
:1009C0001200DB50E76E040EE7CFDBFF12000A0EC9
:1009D000DBCF14F00B0EDBCF15F00C0EDBCF16F0D7
:1009E0000D0EDBCF17F01450151016101710120053
:1009F000130EEECFDBFF140EEDCFDBFF130EDBCFBC
:100A000014F0140EDBCF15F00001800E1514120047
:100A1000F70EDBCF18F0F80EDBCF19F01200050E41
:100A2000DB50E66ED950130F01D9E552E750EE6E58
:100A3000ED6A12000A0EDBCF04F00B0EDBCF05F0DF
:100A40000C0EDBCF06F00D0EDBCF07F01200DBCF74
:100A5000E6FF150EDBCFE6FF050EDB50E552E7247F
:100A6000E552E7241200DB50CED8010EF36E060EDD
:100A7000F3CFDBFF1200EE50EFCFEAFFE96E16C0B6
:100A8000EEFF17C0EEFF18C0EEFF1200D9CFE6FF51
:100A9000DACFE6FFE1CFD9FFE2CFDAFF1200DFCFF6
:100AA000E6FFE66A95EC0DF0E552E552F3501200D0
:100AB000E76E080EE7CFDBFF1200EECF14F0EECFAB
:100AC00015F0EFCF16F0176A1200050EDBCF14F009
:100AD000150EDB50D88014541200010EDBCF16F037
:100AE000020EDBCF17F0186A1200E552E5CFDAFFED
:100AF000E7CFD9FF12000A0E14C0DBFF0B0E15C0A2
:100B0000DBFF1200D9500A0F16EF06F0F36E070E46
:100B1000F3CFDBFF1200EECF14F0EFCF15F0120091
:100B2000010EDB2A020E1200FC0EDBCFE6FFFD0EEB
:100B3000DBCFE6FF1200145E000E155AF70E14C04C
:100B4000DBFFF80E15C0DBFF14C0E9FF15C0EAFF9C
:100B50001200DA20EA6EEF2AEECFF6FF000EEF2247
:100B6000EECFF7FFEF22EECFF8FF1200040EDBCF3F
:100B7000E6FF130EDB50E552E75C9ADFDB5004DF43
:100B8000060EDB501200090EDB500A0DF350DF2475
:100B9000D00FE76E090EE7CFDBFFAEEF04F0DB50BE
:100BA000F36E050EDCEF04F0F70EDBCF14F0F80E59
:100BB000DBCF15F01200DFCFE6FFB8EF04F028DF3F
:100BC000030EECDE5DEF05F00AEC00F0E552E552B5
:100BD000E552E55200091200BDDEEE50EFCFEAFF0C
:100BE000E96E010E1200130EDB50F36E040EDCEF03
:100BF00004F0040EDB50F36E090EDCEF04F0DBCFE3
:100C0000E6FFB8EF04F0E76E050EE7CFDBFF12005A
:100C10008BDFDBEF05F0DBCFE6FF86DFE4EF05F0EF
:100C2000D950F90FE96EFF0EA9EF05F0E96E000E3D
:060C3000DA20EA6E12005A
:0A0C3600D9CFE6FFE1CFD9FF020E8F
:100C4000E126DE6ADD6A938A8A9A939A300EE66E0E
:100C5000E3EC0DF0E552938A180EE66EE3EC0DF02E
:100C6000E5528150200B200A01E0010E146E156A36
:100C700014BE156814C0DEFF15C0DDFFDF50146E12
:100C8000020EE15C02E2E16AE552E16E1450E552C7
:100C9000E7CFD9FF1200D9CFE6FFE1CFD9FFE65267
:100CA000DF6ADFCF14F0080EE76E1418E8AE02D04A
:100CB000E73402D0E750145C22E28A9A939A010E3C
:100CC000E66EE3EC0DF0E552FE0EDB50010BE8B0F2
:100CD000938AE8A0939A050EE66EE3EC0DF0E552D8
:100CE000938A020EE66EE3EC0DF0E552FE0EDB4059
:100CF0007F0BE76EFE0EE7CFDBFFDF2AD2D7E55290
:100D0000E552E7CFD9FF1200D9CFE6FFE1CFD9FFF7
:100D1000020EE126DF6A010EDB6A010EDBCF14F062
:100D2000080EE76E1418E8AE02D0E73402D0E750A0
:100D3000145C24E28A9A939A00000000938A0000CF
:100D400000000000000000000000000000008150D2
:100D5000200B01E0010EF36E010EDB5004E0D89091
:100D6000F336E806FCE1F350DF10DF6E050EE66EA9
:100D7000E3EC0DF0E552010EDB2ACFD7DF5000D0B7
:100D8000146E020EE15C02E2E16AE552E16E14507B
:100D9000E552E7CFD9FF120000000000000000007C
:100DA0000000000000000000010EE66EE3EC0DF014
:100DB000E5521200050EE66EA7EC0DF0E5521200AA
:100DC0000F0EE66EA7EC0DF0E5521200836A956AED
:100DD000280EE66E40EC0AF0E55263EC0DF00009D7
:100DE000FCE1E66AF9EC0BF0E552060EE66E94ECD7
:100DF0000CF0E55263EC0DF00009FCE10F0EE66E1D
:100E000094EC0CF0E55263EC0DF00009FCE11200EB
:100E1000DDDF9396010E0001976F986B983504E221
:100E200097511008000E985530E305DFCC0EE66EA2
:100E300032DFE552440EE66E2EDFE5528186500E1B
:100E4000E66E7EEC0DF0E5528196F5DECC0EE66E98
:100E500022DFE552BE0EE66E1EDFE55255DF0001D1
:100E60009A6F52DF0001996FE8500001856F846B23
:100E700000019A5100018411846FE8508227855146
:100E80008323972B000E9823C9D782C086F083C096
:100E900087F0040E0F0B05E0D89087338633E80601
:100EA000FBE186C080F087C014F0156A87C081F02E
:100EB000000180390F0B8A6F8B6B8139F00B886FC3
:100EC000896BE8508A118C6F89518B118D6F80A1CD
:100ED00018D00A6A0B6A800E0C6E3D0E0D6E8FC024
:100EE00005F090C006F091C007F092C008F05BECEE
:100EF00008F005C08FF006C090F007C091F008C060
:100F000092F0000180A317D00A6A0B6A0C6A3E0EA9
:100F10000D6E8FC005F090C006F091C007F092C032
:100F200008F05BEC08F005C08FF006C090F007C039
:100F300091F008C092F0000180A518D00A6A0B6AEF
:100F4000800E0C6E3E0E0D6E8FC005F090C006F048
:100F500091C007F092C008F05BEC08F005C08FF07C
:100F600006C090F007C091F008C092F0000180A781
:100F700017D00A6A0B6A0C6A3F0E0D6E8FC005F01F
:100F800090C006F091C007F092C008F05BEC08F04A
:100F900005C08FF006C090F007C091F008C092F035
:100FA0000A6A0B6A7A0E0C6E440E0D6E8FC005F045
:100FB00090C006F091C007F092C008F0F1EC08F084
:100FC0005EEC09F006C095F007C096F0000199515B
:100FD000E840E840E8401F0B3F0B0001936F946B23
:100FE000E85094110FE18E51E66EE66A95C0E6FF77
:100FF00096C0E6FF8CC0E6FF8DC0E6FFB40E146E0F
:101000001A0E0ED08E51E66EE66A95C0E6FF96C0C7
:10101000E6FF8CC0E6FF8DC0E6FFA20E146E1A0E2E
:10102000156E166A14C0E6FFE66E16C0E6FF9B0E4C
:10103000E66E000EE66EA7EC0AF0176E0B0EE15E90
:10104000175000018C6B8D6B956B966B8F6B906B53
:10105000916B926B826B836B866B876B63EC0DF08D
:101060000009FCE1E66AF9EC0BF0E55263EC0DF0E7
:101070000009FCE19B0EE66E000EE66EBAEC0CF089
:10108000E552E55263EC0DF00009FCE18E0E146EA2
:101090001A0E156E166A14C0E6FFE66E16C0E6FF5D
:1010A0009B0EE66E000EE66EA7EC0AF0176E050EBC
:0410B000E15EB0D677
:0C10B4000D7E0F6AE5EC09F0FDEC09F080
:1010C0000FB68DEF09F00FA20AD00FAA03D00FBE02
:1010D0008DEF09F00FA499EF09F096EF09F00FAA30
:1010E00005D00FAC99EF09F096EF09F00FA00AD0E8
:1010F0000FA808D00FBE04D00FA402D0A2EF09F0B1
:10110000A6EF09F0126A036A0D50085C116E10E335
:1011100005C013F006C000F007C001F008C010F0D1
:101120000AC005F00BC006F00CC007F00F3A09D05A
:101130000AC013F00BC000F00CC001F00DC010F09D
:10114000116C0F9E0FBC0F8E10C002F00FB0D5EFC8
:1011500009F01A0E1160D5EF09F0026A086A0FA4AF
:1011600008D0056C061E071E081EE86A0622072224
:1011700008220FAC08D0136C001E011E021EE86A84
:10118000002201220222046A115207E008340732C9
:10119000063205320432112EF9D7055013260650B7
:1011A0000022075001220850022204C012F00F9EB4
:1011B00002AE0BD0126C131E001E011E021EE86A46
:1011C00013220022012202220F8E02A006D0D88014
:1011D0000132003213321232102A10C002F0A9EF8D
:1011E00009F00F6AE5EC09F0FDEC09F00FB68DEFA0
:1011F00009F00FA205D00FB88DEF09F094EF09F0B8
:101200000FAA05D00FB08DEF09F094EF09F00FB0E1
:1012100002D00FA802D0A0EF09F0036A0D500824F5
:10122000026EE86A03227E0E025EE86A035A126AC0
:10123000136A006A016A0C500702F4CF01F0F3CF81
:1012400000F00B500702F3501326F4500022000E5A
:1012500001220C500602F3501326F4500022000E17
:1012600001220A500702F3501226F4501322000EF6
:10127000002201220B500602F3501226F4501322D2
:10128000000E002201220C500502F3501226F450E9
:101290001322000E002201220A500602F4501226E8
:1012A000000E1322002201220B500502F4501226D8
:1012B000000E132200220122A9EF09F00F6AE5ECCB
:1012C00009F00FB668EF09F00FA20ED00FB405D0E9
:1012D0007F0E076EFF0E066E1FD0800E076E066A29
:1012E0001BD0076A066A18D00FB0FBD78F0E0860B4
:1012F000EDD77E0E0864F5D78E0E085C05E0D89019
:1013000007320632082AF8D70FA406D0066C071E4B
:10131000E86A072207AEE5D712007F0E086EFF0EBF
:10132000076E066E056E12007F0E0FBEFF0E086E72
:1013300002D07F0E086E800E076E066A056AF3D72C
:101340000FAE04D0800E086E076AF7D7086A076AE6
:10135000F4D70150001013101210F8E003BEF0D7BC
:1013600001BE0CD002500310EBE0D89012361336B9
:10137000003601360206D8A00306F2D70350D4E1A6
:101380000228D2E012AE11D07F0E121402E113A097
:101390000CD0132AE86A0022012207E3D880013228
:1013A00000321332022A0228BFE00250C9E013C003
:1013B00005F000C006F00134076E0230086E0732F7
:1013C000089E0FBE088E93EF09F00736083602E339
:1013D0000F840F7E06E10F80086A076A066A056AB5
:1013E0001200082803E0D88007321200D890073294
:1013F00002E10F8212000F8612000C360D3602E356
:101400000F8C0F7E06E10F880D6A0C6A0B6A0A6A60
:1014100012000D2803E0D8800C321200D8900C3254
:10142000EAE10F8A120007C013F006C012F006505E
:101430000B02F4CF05F0F3CF04F007500C02F4CF09
:1014400007F0F3CF06F00B02F3500526F450062206
:10145000E86A072212500C02F3500526F4500622C7
:10146000E86A07220CAE39EF0AF01250065E1350FC
:10147000075A13AE000C0B50065E0C50075A000CB6
:10148000D9CFE6FFE1CFD9FF0F0E831695169594BD
:10149000959295908C948C928C90E0EC06F0300EA6
:1014A000E66E94EC0CF0E552050EE66E7EEC0DF067
:1014B000E552300EE66E94EC0CF0E552010EE66E4D
:1014C0007EEC0DF0E552320EE66E94EC0CF0E55237
:1014D00063EC0DF00009FCE163EC0DF00009FCE1A8
:1014E000FE0EDBCFE6FF94EC0CF0E55263EC0DF062
:1014F0000009FCE1080EE66E94EC0CF0E55263EC9A
:101500000DF00009FCE10F0EE66E94EC0CF0E552D4
:1015100063EC0DF00009FCE1010EE66E94EC0CF0BA
:10152000E55263EC0DF00009FCE1040EE66E94EC6C
:101530000CF0E55263EC0DF00009FCE1800EE66E64
:0E154000F9EC0BF0E552E552E7CFD9FF1200AF
:02154E00D9CFF3
:10155000E6FFDACFE6FFE1CFD9FFE2CFDAFFE652CE
:10156000E652E652E652D950F90F146EFF0EDA2019
:10157000156E020E14C0DBFF030E15C0DBFF020E5A
:10158000DBCFE6FF030EDBCFE6FFF90EDBCFE6FF96
:10159000FA0EDBCFE6FFFB0EDBCFE6FFD950FC0FE8
:1015A000E66EFF0EDA20E66E20EC00F0146E070EF9
:1015B000E15C02E2E16AE552E16E1450F3CFDEFF36
:1015C000F4CFDDFFFC0EDBCFE9FFFD0EDBCFEAFF42
:1015D000EF6ADECF14F0DDCF15F014C0F3FF15C0B5
:1015E000F4FF040EE15C02E2E16AE552E16EE552CD
:0A15F000E5CFDAFFE7CFD9FF1200C4
:0615FA00060EF66E000E65
:10160000F76E000EF86E00010900F550B46F090086
:10161000F550B56F03E1B46701D03DD00900F55036
:10162000AF6F0900F550B06F0900F550B16F0900B8
:101630000900F550E96E0900F550EA6E090009004D
:101640000900F550B26F0900F550B36F09000900A9
:10165000F6CFB6F0F7CFB7F0F8CFB8F0AFC0F6FFDF
:10166000B0C0F7FFB1C0F8FF0001B25302E1B353BD
:1016700007E00900F550EE6EB207F8E2B307F9D7BC
:10168000B6C0F6FFB7C0F7FFB8C0F8FF0001B40757
:08169000000EB55BBFD712008C
:08169800D9CFE6FFDACFE6FF2F
:1016A000E1CFD9FFE2CFDAFFFB0EDBCF14F0FC0E67
:1016B000DBCF15F00001800E15141AE1FB0EDBCF15
:1016C000E9FFFC0EDBCFEAFFEECFF3FFEDCFF4FF37
:1016D000EE2A000EEF22F3CFE9FFF4CFEAFFFD0E72
:1016E000DBCFEFFFEF50156AF36E15C0F4FF10D09B
:1016F000FB0EDB50FE0806E1FD0EDBCFE6FFD5EC6E
:101700000DF005D0FD0EDBCFE6FFF7EC0DF0E55256
:0C171000E552E5CFDAFFE7CFD9FF120069
:04171C00045009026A
:10172000F3CF00F0F4CF01F00A02F3500126000ECF
:10173000F420026E04500B02F3500226000EF42037
:10174000036E04500C02F350032605500902F350B7
:101750000126F4500222000E032205500A02F35023
:101760000226F450032205500B02F35003260650C4
:101770000902F3500226F450032206500A02F350E5
:0C178000032607500902F3500326120054
:04178C00FE0EE3CF9B
:10179000E9FFFF0EE3CFEAFFF36AF46AEE5203E0DB
:1017A000F34AF42AFBD71200FF0EE3CFF8FFE5520D
:1017B000FF0EE3CFF7FFE552FF0EE3CFF6FFE55252
:1017C000E66AE66AE66A0900F55209E0FD0EE32AD8
:1017D00005E1FE0EE32A02E1FF0EE32AF4D7FD0E37
:1017E000E3CF05F0FE0EE3CF06F0FF0EE3CF07F0E8
:0217F0001200E5
:0E17F200D9CFE6FFE1CFD9FF0F0E9516831673
:10180000FE0EDB508009F00B83128C948C92CCEC92
:1018100006F08C80CCEC06F08C900F0E8316FE0E3A
:10182000DB38F00BF00B8312CCEC06F08C80CCECA8
:1018300006F08C90F00E9512E552E7CFD9FF12001A
:10184000D9CFE6FFE1CFD9FF0F0E95168316FE0E16
:10185000DB504009F00B83128C948C92CCEC06F098
:101860008C80CCEC06F08C900F0E8316FE0EDB38CD
:10187000F00BF00B8312CCEC06F08C80CCEC06F075
:0E1880008C90F00E9512E552E7CFD9FF1200C2
:02188E00D9CFB0
:10189000E6FFE1CFD9FFFD0EDBCFF6FFFE0EDBCF7B
:1018A000F7FF0800F55016E063EC0DF00009FCE1CD
:1018B000FD0EDBCFF6FFFE0EDBCFF7FF0800F55085
:1018C000E66E6EEC0CF0E552FD0EDB2AFE0EE3E355
:0C18D000DB2AE1D7E552E7CFD9FF120078
:0418DC00D9CFE6FF7B
:1018E000E1CFD9FF0F0E95168316FE0EDB50F00BDD
:1018F00083128C828C94CCEC06F08C80CCEC06F0BD
:101900008C900F0E8316FE0EDB38F00BF00B83125B
:10191000CCEC06F08C80CCEC06F08C90F00E95129E
:08192000E552E7CFD9FF1200E8
:08192800D9CFE6FFE1CFD9FFA2
:101930000F0E95168316FE0EDB50F00B83128C945F
:101940008C92CCEC06F08C80CCEC06F08C900F0ED8
:101950008316FE0EDB38F00BF00B8312CCEC06F096
:101960008C80CCEC06F08C90F00E9512E552E7CF0F
:04197000D9FF120089
:0C197400D9CFE6FFE1CFD9FFFD0EDBCF9D
:10198000E9FFFE0EDBCFEAFFEF5015E063EC0DF050
:101990000009FCE1FD0EDBCFE9FFFE0EDBCFEAFF25
:1019A000EF50E66E6EEC0CF0E552FD0EDB2AFE0EFB
:0E19B000E5E3DB2AE3D7E552E7CFD9FF1200CB
:0219BE00036ABA
:1019C000026A016A006A200EE76ED8900436053676
:1019D0000636073600360136023603360950005CFB
:1019E0000A5001580B5002580C50035809E3095093
:1019F000005E0A50015A0B50025A0C50035A042A36
:061A0000E72EE4D71200FE
:0A1A0600D9CFE6FFE1CFD9FFE65289
:101A10008C848C82CCEC06F08C80CCEC06F0F00E42
:101A20008314DF6E8C90CCEC06F08C80CCEC06F04E
:101A300083380F0B0F0BDF128C908C928C94DF503D
:0A1A4000E552E552E7CFD9FF12008E
:061A4A00D9CFE6FFE1CF59
:101A5000D9FFE6528C848C92CCEC06F08C80CCECD6
:101A600006F0F00E8314DF6E8C90CCEC06F08C80C8
:101A7000CCEC06F083380F0B0F0BDF128C908C949C
:0E1A80007F0EDF14E552E552E7CFD9FF1200CA
:021A8E00202016
:101A90002020202020202020202020202020202046
:101AA000200054656D703A202D25642E2530336456
:101AB0002563430054656D703A202B25642E253034
:061AC000336425634300BE
:0A1AC6008C848C92CCEC06F08C802E
:101AD000CCEC06F083AE09D08C90CCEC06F08C8078
:101AE000CCEC06F08C908C94010C8C90CCEC06F035
:0C1AF0008C80CCEC06F08C908C94000CE8
:041AFC00FF0EE350A6
:101B00001C6EEF0E01D0F30EE76EE72E85EF0DF0A1
:101B10000C0E1B6EE76AE72E8BEF0DF01B2E8AEF83
:0A1B20000DF01C2E83EF0DF01200F3
:061B2A00F36AF46AFF0EED
:101B3000E124E96EFF0EE220EA6EED6607D02F0E7B
:0E1B4000EF6404D03A0EEF6001D0F32A1200D9
:021B4E00FF0E88
:101B5000E3501C6E480E01D04C0EE76EE72EFED708
:0E1B6000E76AE72EFED71C2EF7D70000120012
:021B6E00000E67
:101B7000F36E00EE00F0060E01D81200EA6002D00B
:0E1B8000EE6AFCD7F350E9601200EE6AFCD763
:021B8E0015EE52
:101B900000F025EE00F0F86A0F9CFDEC0AF0F8EC7E
:0A1BA0000DF008EC07F0FBD712006F
:061BAA00FF0EE350ACBA8F
:101BB00004D0AF6AAB8EAC8A949CACA2FED7AD6E5B
:061BC000F36EF46A12004E
:0A1BC600FF0EE350E84E120000008D
:0C1BD00000D000D000D0E82EFAD71200A0
:041BDC00303132333F
:0D1BE000343536373839616263646566005C
:021BEE001200E3
:021BF0001200E1
:0E1BF2000000000000000000000000000000E5
:0B1C0000DF00000000000000000000FA
:020000040030CA
:0100010022DC
:010003000EEE
:010006008178
:00000001FF
